:020000002100DD
:1000230080003098FDE599C29832F5993099FDC268
:100033009922758C00758A14D28C308DFDC28DC2C5
:100043008C227F64D2A41190C2A41190DFF67F00AA
:10005300227F64D2A411A0C2A411A0DFF67F0022E4
:100063007F64D2A411B0C2A411B0DFF67F00227F57
:1000730064D2A411C0C2A411C0DFF67F00227F6442
:10008300D2A411D0C2A411D0DFF67F0022758A74E6
:10009300758CF5D28C308DFDC28CC28D22758A3061
:1000A300758CF8D28C308DFDC28CC28D22758A245A
:1000B300758CFAD28C308DFDC28CC28D22758A1854
:1000C300758CFCD28C308DFDC28CC28D22758A0C4E
:1000D300758CFED28C308DFDC28CC28D2279647AF0
:1000E300637B4ADBFEDAFAD9F622758CFE758A4009
:1000F300D28C308DFDC28DC28C22C2B5C2B4C2B6C1
:10010300C2B7227F14758AA0758C15D28C308DFDF1
:09011300C28CC28DDFEF7F0022D7
:1001000075A890759850758921758DFDD28E7400F3
:10011000C2B5C2B4C2B6C2B7B44211B4420E116382
:10012000D2B6C2B7D2B4C2B5740080ECB4460E11D8
:1001300063D2B7C2B6D2B5C2B4740080DBB4520E7B
:100140001172D2B6C2B7C2B5C2B4740080CAB44C80
:100150000E1154C2B7C2B6D2B4C2B5740080B9B4DD
:10016000570E1163C2B7C2B6C2B4C2B5740080A83C
:0301700080A62244
:00000001FF
